{
  "_format": "hh-sol-artifact-1",
  "contractName": "AccountingLedger",
  "sourceName": "contracts/AccountingLedger.sol",
  "abi": [
    {
      "anonymous": false,
      "inputs": [
        {
          "indexed": true,
          "internalType": "uint256",
          "name": "id",
          "type": "uint256"
        },
        {
          "indexed": true,
          "internalType": "address",
          "name": "user",
          "type": "address"
        },
        {
          "indexed": false,
          "internalType": "uint256",
          "name": "amount",
          "type": "uint256"
        },
        {
          "indexed": false,
          "internalType": "string",
          "name": "description",
          "type": "string"
        }
      ],
      "name": "NewEntry",
      "type": "event"
    },
    {
      "inputs": [
        {
          "internalType": "address",
          "name": "",
          "type": "address"
        }
      ],
      "name": "balances",
      "outputs": [
        {
          "internalType": "uint256",
          "name": "",
          "type": "uint256"
        }
      ],
      "stateMutability": "view",
      "type": "function"
    },
    {
      "inputs": [
        {
          "internalType": "uint256",
          "name": "_index",
          "type": "uint256"
        }
      ],
      "name": "getTransaction",
      "outputs": [
        {
          "components": [
            {
              "internalType": "uint256",
              "name": "id",
              "type": "uint256"
            },
            {
              "internalType": "address",
              "name": "user",
              "type": "address"
            },
            {
              "internalType": "string",
              "name": "description",
              "type": "string"
            },
            {
              "internalType": "uint256",
              "name": "amount",
              "type": "uint256"
            },
            {
              "internalType": "bool",
              "name": "isCredit",
              "type": "bool"
            },
            {
              "internalType": "uint256",
              "name": "timestamp",
              "type": "uint256"
            }
          ],
          "internalType": "struct AccountingLedger.Transaction",
          "name": "",
          "type": "tuple"
        }
      ],
      "stateMutability": "view",
      "type": "function"
    },
    {
      "inputs": [],
      "name": "getTransactionCount",
      "outputs": [
        {
          "internalType": "uint256",
          "name": "",
          "type": "uint256"
        }
      ],
      "stateMutability": "view",
      "type": "function"
    },
    {
      "inputs": [
        {
          "internalType": "uint256",
          "name": "",
          "type": "uint256"
        }
      ],
      "name": "ledger",
      "outputs": [
        {
          "internalType": "uint256",
          "name": "id",
          "type": "uint256"
        },
        {
          "internalType": "address",
          "name": "user",
          "type": "address"
        },
        {
          "internalType": "string",
          "name": "description",
          "type": "string"
        },
        {
          "internalType": "uint256",
          "name": "amount",
          "type": "uint256"
        },
        {
          "internalType": "bool",
          "name": "isCredit",
          "type": "bool"
        },
        {
          "internalType": "uint256",
          "name": "timestamp",
          "type": "uint256"
        }
      ],
      "stateMutability": "view",
      "type": "function"
    },
    {
      "inputs": [
        {
          "internalType": "string",
          "name": "_description",
          "type": "string"
        },
        {
          "internalType": "uint256",
          "name": "_amount",
          "type": "uint256"
        },
        {
          "internalType": "bool",
          "name": "_isCredit",
          "type": "bool"
        }
      ],
      "name": "recordTransaction",
      "outputs": [],
      "stateMutability": "nonpayable",
      "type": "function"
    }
  ],
  "bytecode": "0x6080604052348015600f57600080fd5b506110828061001f6000396000f3fe608060405234801561001057600080fd5b50600436106100575760003560e01c806310a7fd7b1461005c57806327e235e3146100915780632e7700f0146100c157806333ea3dc8146100df5780633909e1171461010f575b600080fd5b610076600480360381019061007191906106f0565b61012b565b60405161008896959493929190610818565b60405180910390f35b6100ab60048036038101906100a691906108ac565b61022c565b6040516100b891906108d9565b60405180910390f35b6100c9610244565b6040516100d691906108d9565b60405180910390f35b6100f960048036038101906100f491906106f0565b610250565b60405161010691906109f4565b60405180910390f35b61012960048036038101906101249190610b77565b6103ad565b005b6000818154811061013b57600080fd5b90600052602060002090600602016000915090508060000154908060010160009054906101000a900473ffffffffffffffffffffffffffffffffffffffff169080600201805461018a90610c15565b80601f01602080910402602001604051908101604052809291908181526020018280546101b690610c15565b80156102035780601f106101d857610100808354040283529160200191610203565b820191906000526020600020905b8154815290600101906020018083116101e657829003601f168201915b5050505050908060030154908060040160009054906101000a900460ff16908060050154905086565b60016020528060005260406000206000915090505481565b60008080549050905090565b610258610658565b6000828154811061026c5761026b610c46565b5b90600052602060002090600602016040518060c0016040529081600082015481526020016001820160009054906101000a900473ffffffffffffffffffffffffffffffffffffffff1673ffffffffffffffffffffffffffffffffffffffff1673ffffffffffffffffffffffffffffffffffffffff1681526020016002820180546102f590610c15565b80601f016020809104026020016040519081016040528092919081815260200182805461032190610c15565b801561036e5780601f106103435761010080835404028352916020019161036e565b820191906000526020600020905b81548152906001019060200180831161035157829003601f168201915b50505050508152602001600382015481526020016004820160009054906101000a900460ff161515151581526020016005820154815250509050919050565b8061048f5781600160003373ffffffffffffffffffffffffffffffffffffffff1673ffffffffffffffffffffffffffffffffffffffff168152602001908152602001600020541015610434576040517f08c379a000000000000000000000000000000000000000000000000000000000815260040161042b90610ce7565b60405180910390fd5b81600160003373ffffffffffffffffffffffffffffffffffffffff1673ffffffffffffffffffffffffffffffffffffffff16815260200190815260200160002060008282546104839190610d36565b925050819055506104e6565b81600160003373ffffffffffffffffffffffffffffffffffffffff1673ffffffffffffffffffffffffffffffffffffffff16815260200190815260200160002060008282546104de9190610d6a565b925050819055505b60006040518060c0016040528060008054905081526020013373ffffffffffffffffffffffffffffffffffffffff168152602001858152602001848152602001831515815260200142815250905060008190806001815401808255809150506001900390600052602060002090600602016000909190919091506000820151816000015560208201518160010160006101000a81548173ffffffffffffffffffffffffffffffffffffffff021916908373ffffffffffffffffffffffffffffffffffffffff16021790555060408201518160020190816105c69190610f4a565b506060820151816003015560808201518160040160006101000a81548160ff02191690831515021790555060a0820151816005015550503373ffffffffffffffffffffffffffffffffffffffff1681600001517fea5fa43f525c9e64ad7b58ad5e9af39930a5b612a370fb866dd23ce5c1dfbf03858760405161064a92919061101c565b60405180910390a350505050565b6040518060c0016040528060008152602001600073ffffffffffffffffffffffffffffffffffffffff1681526020016060815260200160008152602001600015158152602001600081525090565b6000604051905090565b600080fd5b600080fd5b6000819050919050565b6106cd816106ba565b81146106d857600080fd5b50565b6000813590506106ea816106c4565b92915050565b600060208284031215610706576107056106b0565b5b6000610714848285016106db565b91505092915050565b610726816106ba565b82525050565b600073ffffffffffffffffffffffffffffffffffffffff82169050919050565b60006107578261072c565b9050919050565b6107678161074c565b82525050565b600081519050919050565b600082825260208201905092915050565b60005b838110156107a757808201518184015260208101905061078c565b60008484015250505050565b6000601f19601f8301169050919050565b60006107cf8261076d565b6107d98185610778565b93506107e9818560208601610789565b6107f2816107b3565b840191505092915050565b60008115159050919050565b610812816107fd565b82525050565b600060c08201905061082d600083018961071d565b61083a602083018861075e565b818103604083015261084c81876107c4565b905061085b606083018661071d565b6108686080830185610809565b61087560a083018461071d565b979650505050505050565b6108898161074c565b811461089457600080fd5b50565b6000813590506108a681610880565b92915050565b6000602082840312156108c2576108c16106b0565b5b60006108d084828501610897565b91505092915050565b60006020820190506108ee600083018461071d565b92915050565b6108fd816106ba565b82525050565b61090c8161074c565b82525050565b600082825260208201905092915050565b600061092e8261076d565b6109388185610912565b9350610948818560208601610789565b610951816107b3565b840191505092915050565b610965816107fd565b82525050565b600060c08301600083015161098360008601826108f4565b5060208301516109966020860182610903565b50604083015184820360408601526109ae8282610923565b91505060608301516109c360608601826108f4565b5060808301516109d6608086018261095c565b5060a08301516109e960a08601826108f4565b508091505092915050565b60006020820190508181036000830152610a0e818461096b565b905092915050565b600080fd5b600080fd5b7f4e487b7100000000000000000000000000000000000000000000000000000000600052604160045260246000fd5b610a58826107b3565b810181811067ffffffffffffffff82111715610a7757610a76610a20565b5b80604052505050565b6000610a8a6106a6565b9050610a968282610a4f565b919050565b600067ffffffffffffffff821115610ab657610ab5610a20565b5b610abf826107b3565b9050602081019050919050565b82818337600083830152505050565b6000610aee610ae984610a9b565b610a80565b905082815260208101848484011115610b0a57610b09610a1b565b5b610b15848285610acc565b509392505050565b600082601f830112610b3257610b31610a16565b5b8135610b42848260208601610adb565b91505092915050565b610b54816107fd565b8114610b5f57600080fd5b50565b600081359050610b7181610b4b565b92915050565b600080600060608486031215610b9057610b8f6106b0565b5b600084013567ffffffffffffffff811115610bae57610bad6106b5565b5b610bba86828701610b1d565b9350506020610bcb868287016106db565b9250506040610bdc86828701610b62565b9150509250925092565b7f4e487b7100000000000000000000000000000000000000000000000000000000600052602260045260246000fd5b60006002820490506001821680610c2d57607f821691505b602082108103610c4057610c3f610be6565b5b50919050565b7f4e487b7100000000000000000000000000000000000000000000000000000000600052603260045260246000fd5b7f53616c646f20696e737566696369656e7465207061726120657374652064656260008201527f69746f2e00000000000000000000000000000000000000000000000000000000602082015250565b6000610cd1602483610778565b9150610cdc82610c75565b604082019050919050565b60006020820190508181036000830152610d0081610cc4565b9050919050565b7f4e487b7100000000000000000000000000000000000000000000000000000000600052601160045260246000fd5b6000610d41826106ba565b9150610d4c836106ba565b9250828203905081811115610d6457610d63610d07565b5b92915050565b6000610d75826106ba565b9150610d80836106ba565b9250828201905080821115610d9857610d97610d07565b5b92915050565b60008190508160005260206000209050919050565b60006020601f8301049050919050565b600082821b905092915050565b600060088302610e007fffffffffffffffffffffffffffffffffffffffffffffffffffffffffffffffff82610dc3565b610e0a8683610dc3565b95508019841693508086168417925050509392505050565b6000819050919050565b6000610e47610e42610e3d846106ba565b610e22565b6106ba565b9050919050565b6000819050919050565b610e6183610e2c565b610e75610e6d82610e4e565b848454610dd0565b825550505050565b600090565b610e8a610e7d565b610e95818484610e58565b505050565b5b81811015610eb957610eae600082610e82565b600181019050610e9b565b5050565b601f821115610efe57610ecf81610d9e565b610ed884610db3565b81016020851015610ee7578190505b610efb610ef385610db3565b830182610e9a565b50505b505050565b600082821c905092915050565b6000610f2160001984600802610f03565b1980831691505092915050565b6000610f3a8383610f10565b9150826002028217905092915050565b610f538261076d565b67ffffffffffffffff811115610f6c57610f6b610a20565b5b610f768254610c15565b610f81828285610ebd565b600060209050601f831160018114610fb45760008415610fa2578287015190505b610fac8582610f2e565b865550611014565b601f198416610fc286610d9e565b60005b82811015610fea57848901518255600182019150602085019450602081019050610fc5565b868310156110075784890151611003601f891682610f10565b8355505b6001600288020188555050505b505050505050565b6000604082019050611031600083018561071d565b818103602083015261104381846107c4565b9050939250505056fea2646970667358221220642ef1e28311877881eade37aa8a43fa204943ab2210cabeb509e1315549852864736f6c634300081c0033",
  "linkReferences": {},
  "deployedLinkReferences": {}
}